:020000000029D5
:1002000014221B2283160317880189010313051486
:100210008514F030860088008701831286018701EB
:100220008801A001A201A1012E22880A210808024A
:1002300003138312031D1429081088100811881154
:10024000081A23290816081E262908121429051839
:1002500027292008A100200800228700A00A201AD0
:10026000A001080085183229A1012008A10020085A
:0C02700000228700A003201AA001080053
:100400008A018A140F398207403479342434303415
:10041000193412340234783400341034083403347C
:100420004634213406340E34031383160F140F128E
:100430008F120F1708000313831681110110811406
:10044000011581123D300313831281000B11080046
:10045000031383123D3081000B1108000A30A20003
:100460000B1D302A05182721851832212822860ADB
:06047000A20B302A080077
:04400E00C430FF3F7C
:00000001FF
